{
  "contractName": "LendingStrategyUSDT",
  "abi": [
    {
      "inputs": [
        {
          "internalType": "address",
          "name": "_vault",
          "type": "address"
        },
        {
          "internalType": "address",
          "name": "_addressProvider",
          "type": "address"
        },
        {
          "internalType": "address",
          "name": "_accessProvider",
          "type": "address"
        },
        {
          "internalType": "address",
          "name": "_controller",
          "type": "address"
        }
      ],
      "stateMutability": "nonpayable",
      "type": "constructor"
    },
    {
      "anonymous": false,
      "inputs": [
        {
          "indexed": false,
          "internalType": "address",
          "name": "_sender",
          "type": "address"
        },
        {
          "indexed": false,
          "internalType": "address",
          "name": "_token",
          "type": "address"
        },
        {
          "indexed": false,
          "internalType": "address",
          "name": "_strategy",
          "type": "address"
        }
      ],
      "name": "ApproveStrategy",
      "type": "event"
    },
    {
      "anonymous": false,
      "inputs": [
        {
          "indexed": false,
          "internalType": "address",
          "name": "_sender",
          "type": "address"
        },
        {
          "indexed": false,
          "internalType": "address",
          "name": "_token",
          "type": "address"
        },
        {
          "indexed": false,
          "internalType": "address",
          "name": "_strategy",
          "type": "address"
        }
      ],
      "name": "RevokeStrategy",
      "type": "event"
    },
    {
      "anonymous": false,
      "inputs": [
        {
          "indexed": false,
          "internalType": "address",
          "name": "_sender",
          "type": "address"
        },
        {
          "indexed": false,
          "internalType": "address",
          "name": "_accessProvider",
          "type": "address"
        }
      ],
      "name": "SetAccessProvider",
      "type": "event"
    },
    {
      "anonymous": false,
      "inputs": [
        {
          "indexed": false,
          "internalType": "address",
          "name": "_sender",
          "type": "address"
        },
        {
          "indexed": false,
          "internalType": "bool",
          "name": "value",
          "type": "bool"
        }
      ],
      "name": "SetAutoHarvest",
      "type": "event"
    },
    {
      "anonymous": false,
      "inputs": [
        {
          "indexed": false,
          "internalType": "address",
          "name": "_sender",
          "type": "address"
        },
        {
          "indexed": false,
          "internalType": "uint256",
          "name": "_amount",
          "type": "uint256"
        }
      ],
      "name": "SetBlocksPerYear",
      "type": "event"
    },
    {
      "anonymous": false,
      "inputs": [
        {
          "indexed": false,
          "internalType": "address",
          "name": "_sender",
          "type": "address"
        },
        {
          "indexed": false,
          "internalType": "address",
          "name": "_controller",
          "type": "address"
        }
      ],
      "name": "SetController",
      "type": "event"
    },
    {
      "anonymous": false,
      "inputs": [
        {
          "indexed": false,
          "internalType": "address",
          "name": "_sender",
          "type": "address"
        },
        {
          "indexed": false,
          "internalType": "address",
          "name": "_token",
          "type": "address"
        },
        {
          "indexed": false,
          "internalType": "address",
          "name": "_strategy",
          "type": "address"
        }
      ],
      "name": "SetStrategy",
      "type": "event"
    },
    {
      "anonymous": false,
      "inputs": [
        {
          "indexed": false,
          "internalType": "address",
          "name": "_sender",
          "type": "address"
        },
        {
          "indexed": false,
          "internalType": "address",
          "name": "_token",
          "type": "address"
        },
        {
          "indexed": false,
          "internalType": "address",
          "name": "_vault",
          "type": "address"
        }
      ],
      "name": "SetVault",
      "type": "event"
    },
    {
      "anonymous": false,
      "inputs": [
        {
          "indexed": false,
          "internalType": "address",
          "name": "_sender",
          "type": "address"
        },
        {
          "indexed": false,
          "internalType": "uint256",
          "name": "_amount",
          "type": "uint256"
        }
      ],
      "name": "VaultDeposit",
      "type": "event"
    },
    {
      "anonymous": false,
      "inputs": [
        {
          "indexed": false,
          "internalType": "address",
          "name": "_receiver",
          "type": "address"
        },
        {
          "indexed": false,
          "internalType": "uint256",
          "name": "_amount",
          "type": "uint256"
        }
      ],
      "name": "VaultWithdraw",
      "type": "event"
    },
    {
      "inputs": [],
      "name": "ADMIN_ROLE",
      "outputs": [
        {
          "internalType": "bytes32",
          "name": "",
          "type": "bytes32"
        }
      ],
      "stateMutability": "view",
      "type": "function",
      "constant": true
    },
    {
      "inputs": [],
      "name": "OPERATOR_ROLE",
      "outputs": [
        {
          "internalType": "bytes32",
          "name": "",
          "type": "bytes32"
        }
      ],
      "stateMutability": "view",
      "type": "function",
      "constant": true
    },
    {
      "inputs": [],
      "name": "aavePool",
      "outputs": [
        {
          "internalType": "address",
          "name": "",
          "type": "address"
        }
      ],
      "stateMutability": "view",
      "type": "function",
      "constant": true
    },
    {
      "inputs": [],
      "name": "accessProvider",
      "outputs": [
        {
          "internalType": "contract AccessProvider",
          "name": "",
          "type": "address"
        }
      ],
      "stateMutability": "view",
      "type": "function",
      "constant": true
    },
    {
      "inputs": [],
      "name": "addressProvider",
      "outputs": [
        {
          "internalType": "contract AddressProvider",
          "name": "",
          "type": "address"
        }
      ],
      "stateMutability": "view",
      "type": "function",
      "constant": true
    },
    {
      "inputs": [],
      "name": "autoHarvest",
      "outputs": [
        {
          "internalType": "bool",
          "name": "",
          "type": "bool"
        }
      ],
      "stateMutability": "view",
      "type": "function",
      "constant": true
    },
    {
      "inputs": [],
      "name": "blocksPerYear",
      "outputs": [
        {
          "internalType": "uint256",
          "name": "",
          "type": "uint256"
        }
      ],
      "stateMutability": "view",
      "type": "function",
      "constant": true
    },
    {
      "inputs": [],
      "name": "compound",
      "outputs": [
        {
          "internalType": "address",
          "name": "",
          "type": "address"
        }
      ],
      "stateMutability": "view",
      "type": "function",
      "constant": true
    },
    {
      "inputs": [],
      "name": "compoundToken",
      "outputs": [
        {
          "internalType": "address",
          "name": "",
          "type": "address"
        }
      ],
      "stateMutability": "view",
      "type": "function",
      "constant": true
    },
    {
      "inputs": [],
      "name": "controller",
      "outputs": [
        {
          "internalType": "address",
          "name": "",
          "type": "address"
        }
      ],
      "stateMutability": "view",
      "type": "function",
      "constant": true
    },
    {
      "inputs": [
        {
          "internalType": "address",
          "name": "_want",
          "type": "address"
        }
      ],
      "name": "getAaveAPY",
      "outputs": [
        {
          "internalType": "uint256",
          "name": "",
          "type": "uint256"
        }
      ],
      "stateMutability": "view",
      "type": "function",
      "constant": true
    },
    {
      "inputs": [],
      "name": "getAavePool",
      "outputs": [
        {
          "internalType": "address",
          "name": "",
          "type": "address"
        }
      ],
      "stateMutability": "view",
      "type": "function",
      "constant": true
    },
    {
      "inputs": [],
      "name": "getAaveUSDT",
      "outputs": [
        {
          "internalType": "address",
          "name": "",
          "type": "address"
        }
      ],
      "stateMutability": "view",
      "type": "function",
      "constant": true
    },
    {
      "inputs": [],
      "name": "getAaveUSDTAPY",
      "outputs": [
        {
          "internalType": "uint256",
          "name": "",
          "type": "uint256"
        }
      ],
      "stateMutability": "view",
      "type": "function",
      "constant": true
    },
    {
      "inputs": [],
      "name": "getCompound",
      "outputs": [
        {
          "internalType": "address",
          "name": "",
          "type": "address"
        }
      ],
      "stateMutability": "view",
      "type": "function",
      "constant": true
    },
    {
      "inputs": [],
      "name": "getCompoundUSDT",
      "outputs": [
        {
          "internalType": "address",
          "name": "",
          "type": "address"
        }
      ],
      "stateMutability": "view",
      "type": "function",
      "constant": true
    },
    {
      "inputs": [],
      "name": "getCompoundUSDTAPY",
      "outputs": [
        {
          "internalType": "uint256",
          "name": "",
          "type": "uint256"
        }
      ],
      "stateMutability": "view",
      "type": "function",
      "constant": true
    },
    {
      "inputs": [],
      "name": "getUSDT",
      "outputs": [
        {
          "internalType": "address",
          "name": "",
          "type": "address"
        }
      ],
      "stateMutability": "view",
      "type": "function",
      "constant": true
    },
    {
      "inputs": [],
      "name": "getUniswapV2Router02",
      "outputs": [
        {
          "internalType": "address",
          "name": "",
          "type": "address"
        }
      ],
      "stateMutability": "view",
      "type": "function",
      "constant": true
    },
    {
      "inputs": [],
      "name": "ifAdmin",
      "outputs": [
        {
          "internalType": "bool",
          "name": "",
          "type": "bool"
        }
      ],
      "stateMutability": "view",
      "type": "function",
      "constant": true
    },
    {
      "inputs": [],
      "name": "ifAdminOrOperator",
      "outputs": [
        {
          "internalType": "bool",
          "name": "",
          "type": "bool"
        }
      ],
      "stateMutability": "view",
      "type": "function",
      "constant": true
    },
    {
      "inputs": [],
      "name": "ifOperator",
      "outputs": [
        {
          "internalType": "bool",
          "name": "",
          "type": "bool"
        }
      ],
      "stateMutability": "view",
      "type": "function",
      "constant": true
    },
    {
      "inputs": [
        {
          "internalType": "address",
          "name": "_token",
          "type": "address"
        },
        {
          "internalType": "address",
          "name": "_receiver",
          "type": "address"
        },
        {
          "internalType": "uint256",
          "name": "_amount",
          "type": "uint256"
        },
        {
          "internalType": "string",
          "name": "_message",
          "type": "string"
        }
      ],
      "name": "inCaseStuckTransfer",
      "outputs": [],
      "stateMutability": "nonpayable",
      "type": "function"
    },
    {
      "inputs": [],
      "name": "provider",
      "outputs": [
        {
          "internalType": "enum DataTypes.Lender",
          "name": "",
          "type": "uint8"
        }
      ],
      "stateMutability": "view",
      "type": "function",
      "constant": true
    },
    {
      "inputs": [
        {
          "internalType": "address",
          "name": "_accessProvider",
          "type": "address"
        }
      ],
      "name": "setAccessProvider",
      "outputs": [],
      "stateMutability": "nonpayable",
      "type": "function"
    },
    {
      "inputs": [
        {
          "internalType": "uint256",
          "name": "_blocksPerYear",
          "type": "uint256"
        }
      ],
      "name": "setBlocksPerYear",
      "outputs": [],
      "stateMutability": "nonpayable",
      "type": "function"
    },
    {
      "inputs": [
        {
          "internalType": "uint256",
          "name": "",
          "type": "uint256"
        }
      ],
      "name": "stuckMessage",
      "outputs": [
        {
          "internalType": "address",
          "name": "token",
          "type": "address"
        },
        {
          "internalType": "address",
          "name": "operator",
          "type": "address"
        },
        {
          "internalType": "address",
          "name": "receiver",
          "type": "address"
        },
        {
          "internalType": "uint256",
          "name": "amount",
          "type": "uint256"
        },
        {
          "internalType": "string",
          "name": "message",
          "type": "string"
        },
        {
          "internalType": "uint256",
          "name": "blockTime",
          "type": "uint256"
        },
        {
          "internalType": "uint256",
          "name": "blockNumber",
          "type": "uint256"
        }
      ],
      "stateMutability": "view",
      "type": "function",
      "constant": true
    },
    {
      "inputs": [],
      "name": "uniswapV2Router02",
      "outputs": [
        {
          "internalType": "address",
          "name": "",
          "type": "address"
        }
      ],
      "stateMutability": "view",
      "type": "function",
      "constant": true
    },
    {
      "inputs": [],
      "name": "vault",
      "outputs": [
        {
          "internalType": "address",
          "name": "",
          "type": "address"
        }
      ],
      "stateMutability": "view",
      "type": "function",
      "constant": true
    },
    {
      "inputs": [],
      "name": "want",
      "outputs": [
        {
          "internalType": "address",
          "name": "",
          "type": "address"
        }
      ],
      "stateMutability": "view",
      "type": "function",
      "constant": true
    },
    {
      "inputs": [
        {
          "internalType": "bool",
          "name": "_value",
          "type": "bool"
        }
      ],
      "name": "setAutoHarvest",
      "outputs": [],
      "stateMutability": "nonpayable",
      "type": "function"
    },
    {
      "inputs": [],
      "name": "getName",
      "outputs": [
        {
          "internalType": "string",
          "name": "",
          "type": "string"
        }
      ],
      "stateMutability": "pure",
      "type": "function",
      "constant": true
    },
    {
      "inputs": [
        {
          "internalType": "uint256",
          "name": "_amount",
          "type": "uint256"
        }
      ],
      "name": "withdraw",
      "outputs": [],
      "stateMutability": "nonpayable",
      "type": "function"
    },
    {
      "inputs": [],
      "name": "withdrawAll",
      "outputs": [],
      "stateMutability": "nonpayable",
      "type": "function"
    },
    {
      "inputs": [],
      "name": "balanceOf",
      "outputs": [
        {
          "internalType": "uint256",
          "name": "",
          "type": "uint256"
        }
      ],
      "stateMutability": "view",
      "type": "function",
      "constant": true
    },
    {
      "inputs": [],
      "name": "balance",
      "outputs": [
        {
          "internalType": "uint256",
          "name": "",
          "type": "uint256"
        }
      ],
      "stateMutability": "view",
      "type": "function",
      "constant": true
    },
    {
      "inputs": [],
      "name": "claimCompound",
      "outputs": [],
      "stateMutability": "nonpayable",
      "type": "function"
    },
    {
      "inputs": [],
      "name": "harvest",
      "outputs": [],
      "stateMutability": "nonpayable",
      "type": "function"
    },
    {
      "inputs": [],
      "name": "deposit",
      "outputs": [],
      "stateMutability": "nonpayable",
      "type": "function"
    },
    {
      "inputs": [],
      "name": "reBalance",
      "outputs": [],
      "stateMutability": "nonpayable",
      "type": "function"
    },
    {
      "inputs": [],
      "name": "balanceCompound",
      "outputs": [
        {
          "internalType": "uint256",
          "name": "",
          "type": "uint256"
        }
      ],
      "stateMutability": "view",
      "type": "function",
      "constant": true
    },
    {
      "inputs": [],
      "name": "balanceCompoundUnderlying",
      "outputs": [
        {
          "internalType": "uint256",
          "name": "",
          "type": "uint256"
        }
      ],
      "stateMutability": "view",
      "type": "function",
      "constant": true
    },
    {
      "inputs": [],
      "name": "balanceAaveUnderlying",
      "outputs": [
        {
          "internalType": "uint256",
          "name": "",
          "type": "uint256"
        }
      ],
      "stateMutability": "view",
      "type": "function",
      "constant": true
    },
    {
      "inputs": [],
      "name": "calcPoolUnderlying",
      "outputs": [
        {
          "internalType": "uint256",
          "name": "",
          "type": "uint256"
        }
      ],
      "stateMutability": "view",
      "type": "function",
      "constant": true
    }
  ],
  "bytecode": "0x60806040526000801b6000557f97667070c54ef182b0f5858b034beac1b6f3089aa2d3188bb1e8929f4fa9b929600155622014806003556000600c60146101000a81548160ff021916908360028111156200005657fe5b02179055506040518060400160405280601481526020017f434f4d504f554e445f434f4d5054524f4c4c4552000000000000000000000000815250600d9080519060200190620000a89291906200083a565b506001600e60006101000a81548160ff021916908315150217905550348015620000d157600080fd5b50604051620055a3380380620055a38339818101604052810190620000f7919062000933565b828280600260006101000a81548173ffffffffffffffffffffffffffffffffffffffff021916908373ffffffffffffffffffffffffffffffffffffffff1602179055505080600460006101000a81548173ffffffffffffffffffffffffffffffffffffffff021916908373ffffffffffffffffffffffffffffffffffffffff1602179055505083600a60006101000a81548173ffffffffffffffffffffffffffffffffffffffff021916908373ffffffffffffffffffffffffffffffffffffffff16021790555080600660006101000a81548173ffffffffffffffffffffffffffffffffffffffff021916908373ffffffffffffffffffffffffffffffffffffffff1602179055506200020f6200039960201b60201c565b600760006101000a81548173ffffffffffffffffffffffffffffffffffffffff021916908373ffffffffffffffffffffffffffffffffffffffff1602179055506200025f6200048660201b60201c565b600860006101000a81548173ffffffffffffffffffffffffffffffffffffffff021916908373ffffffffffffffffffffffffffffffffffffffff160217905550620002af6200057360201b60201c565b600960006101000a81548173ffffffffffffffffffffffffffffffffffffffff021916908373ffffffffffffffffffffffffffffffffffffffff160217905550620002ff6200066060201b60201c565b600b60006101000a81548173ffffffffffffffffffffffffffffffffffffffff021916908373ffffffffffffffffffffffffffffffffffffffff1602179055506200034f6200074d60201b60201c565b600c60006101000a81548173ffffffffffffffffffffffffffffffffffffffff021916908373ffffffffffffffffffffffffffffffffffffffff1602179055505050505062000ab5565b6000600460009054906101000a900473ffffffffffffffffffffffffffffffffffffffff1673ffffffffffffffffffffffffffffffffffffffff1663d974b4e26040518060400160405280600481526020017f55534454000000000000000000000000000000000000000000000000000000008152506040518263ffffffff1660e01b81526004016200042d9190620009e0565b60206040518083038186803b1580156200044657600080fd5b505afa1580156200045b573d6000803e3d6000fd5b505050506040513d601f19601f8201168201806040525081019062000481919062000907565b905090565b6000600460009054906101000a900473ffffffffffffffffffffffffffffffffffffffff1673ffffffffffffffffffffffffffffffffffffffff1663d974b4e26040518060400160405280600d81526020017f434f4d504f554e445f55534454000000000000000000000000000000000000008152506040518263ffffffff1660e01b81526004016200051a9190620009e0565b60206040518083038186803b1580156200053357600080fd5b505afa15801562000548573d6000803e3d6000fd5b505050506040513d601f19601f820116820180604052508101906200056e919062000907565b905090565b6000600460009054906101000a900473ffffffffffffffffffffffffffffffffffffffff1673ffffffffffffffffffffffffffffffffffffffff1663d974b4e26040518060400160405280600981526020017f414156455f504f4f4c00000000000000000000000000000000000000000000008152506040518263ffffffff1660e01b8152600401620006079190620009e0565b60206040518083038186803b1580156200062057600080fd5b505afa15801562000635573d6000803e3d6000fd5b505050506040513d601f19601f820116820180604052508101906200065b919062000907565b905090565b6000600460009054906101000a900473ffffffffffffffffffffffffffffffffffffffff1673ffffffffffffffffffffffffffffffffffffffff1663d974b4e26040518060400160405280600881526020017f434f4d504f554e440000000000000000000000000000000000000000000000008152506040518263ffffffff1660e01b8152600401620006f49190620009e0565b60206040518083038186803b1580156200070d57600080fd5b505afa15801562000722573d6000803e3d6000fd5b505050506040513d601f19601f8201168201806040525081019062000748919062000907565b905090565b6000600460009054906101000a900473ffffffffffffffffffffffffffffffffffffffff1673ffffffffffffffffffffffffffffffffffffffff1663d974b4e26040518060400160405280601481526020017f554e49535741505f56325f524f555445525f30320000000000000000000000008152506040518263ffffffff1660e01b8152600401620007e19190620009e0565b60206040518083038186803b158015620007fa57600080fd5b505afa1580156200080f573d6000803e3d6000fd5b505050506040513d601f19601f8201168201806040525081019062000835919062000907565b905090565b828054600181600116156101000203166002900490600052602060002090601f016020900481019282620008725760008555620008be565b82601f106200088d57805160ff1916838001178555620008be565b82800160010185558215620008be579182015b82811115620008bd578251825591602001919060010190620008a0565b5b509050620008cd9190620008d1565b5090565b5b80821115620008ec576000816000905550600101620008d2565b5090565b600081519050620009018162000a9b565b92915050565b6000602082840312156200091a57600080fd5b60006200092a84828501620008f0565b91505092915050565b600080600080608085870312156200094a57600080fd5b60006200095a87828801620008f0565b94505060206200096d87828801620008f0565b93505060406200098087828801620008f0565b92505060606200099387828801620008f0565b91505092959194509250565b6000620009ac8262000a04565b620009b8818562000a0f565b9350620009ca81856020860162000a54565b620009d58162000a8a565b840191505092915050565b60006020820190508181036000830152620009fc81846200099f565b905092915050565b600081519050919050565b600082825260208201905092915050565b600062000a2d8262000a34565b9050919050565b600073ffffffffffffffffffffffffffffffffffffffff82169050919050565b60005b8381101562000a7457808201518184015260208101905062000a57565b8381111562000a84576000848401525b50505050565b6000601f19601f8301169050919050565b62000aa68162000a20565b811462000ab257600080fd5b50565b614ade8062000ac56000396000f3fe608060405234801561001057600080fd5b50600436106102745760003560e01c80637612591b11610151578063b69ef8a8116100c3578063e8f2cc4a11610087578063e8f2cc4a146106bf578063eaf15132146106db578063f5b541a6146106e5578063f69e204614610703578063f77c479114610721578063fbfa77cf1461073f57610274565b8063b69ef8a814610641578063c77ef9b81461065f578063d0e30db01461067b578063e179a59c14610685578063e5fa2b70146106a357610274565b8063929bc19c11610115578063929bc19c1461058d578063a03e4bc3146105ab578063a0e976b6146105c9578063a385fb96146105e7578063a7c6402c14610605578063b362ae431461062357610274565b80637612591b146104e1578063853828b6146104ff5780638d0f5c36146105095780638d48a19614610527578063929823551461055d57610274565b80632954018c116101ea578063581592f1116101ae578063581592f11461042d5780635ae5e7f01461044b57806361c1ec55146104695780636434ee0e14610487578063722713f7146104a557806375b238fc146104c357610274565b80632954018c146103af5780632b098613146103cd5780632e1a7d4d146103eb5780633ded5a34146104075780634641257d1461042357610274565b806317d7de7c1161023c57806317d7de7c1461030f5780631cc7e1571461032d5780631f1fcd511461034b57806322301457146103695780632451b3d81461037357806328ad73ba1461039157610274565b8063085d48831461027957806309ea96971461029757806313561b55146102b5578063139cea3e146102d3578063172fd995146102f1575b600080fd5b61028161075d565b60405161028e91906144c2565b60405180910390f35b61029f610770565b6040516102ac91906142f7565b60405180910390f35b6102bd610857565b6040516102ca91906142f7565b60405180910390f35b6102db61093e565b6040516102e89190614641565b60405180910390f35b6102f961097f565b6040516103069190614456565b60405180910390f35b610317610b29565b60405161032491906144dd565b60405180910390f35b610335610b66565b60405161034291906142f7565b60405180910390f35b610353610c4d565b60405161036091906142f7565b60405180910390f35b610371610c73565b005b61037b610d8b565b604051610388919061448c565b60405180910390f35b610399610db1565b6040516103a69190614641565b60405180910390f35b6103b7610e4d565b6040516103c491906144a7565b60405180910390f35b6103d5610e73565b6040516103e29190614641565b60405180910390f35b61040560048036038101906104009190613e5c565b610f2c565b005b610421600480360381019061041c9190613d4d565b611108565b005b61042b6111bf565b005b6104356115db565b60405161044291906142f7565b60405180910390f35b6104536116c2565b6040516104609190614456565b60405180910390f35b6104716116d5565b60405161047e9190614641565b60405180910390f35b61048f611787565b60405161049c91906142f7565b60405180910390f35b6104ad61186e565b6040516104ba9190614641565b60405180910390f35b6104cb61187d565b6040516104d89190614471565b60405180910390f35b6104e9611883565b6040516104f691906142f7565b60405180910390f35b610507611a06565b005b610511611bb0565b60405161051e9190614641565b60405180910390f35b610541600480360381019061053c9190613e5c565b611c9c565b6040516105549796959493929190614364565b60405180910390f35b61057760048036038101906105729190613cac565b611de6565b6040516105849190614641565b60405180910390f35b610595611ebe565b6040516105a29190614456565b60405180910390f35b6105b3611f93565b6040516105c091906142f7565b60405180910390f35b6105d1611fb9565b6040516105de91906142f7565b60405180910390f35b6105ef611fdf565b6040516105fc9190614641565b60405180910390f35b61060d611fe5565b60405161061a91906142f7565b60405180910390f35b61062b61200b565b6040516106389190614641565b60405180910390f35b610649612022565b6040516106569190614641565b60405180910390f35b61067960048036038101906106749190613cac565b6120d4565b005b6106836121fd565b005b61068d6122ae565b60405161069a9190614456565b60405180910390f35b6106bd60048036038101906106b89190613e5c565b612383565b005b6106d960048036038101906106d49190613e09565b612440565b005b6106e3612510565b005b6106ed61262f565b6040516106fa9190614471565b60405180910390f35b61070b612635565b60405161071891906142f7565b60405180910390f35b61072961265b565b60405161073691906142f7565b60405180910390f35b610747612681565b60405161075491906142f7565b60405180910390f35b600c60149054906101000a900460ff1681565b6000600460009054906101000a900473ffffffffffffffffffffffffffffffffffffffff1673ffffffffffffffffffffffffffffffffffffffff1663d974b4e26040518060400160405280600d81526020017f434f4d504f554e445f55534454000000000000000000000000000000000000008152506040518263ffffffff1660e01b815260040161080291906144dd565b60206040518083038186803b15801561081a57600080fd5b505afa15801561082e573d6000803e3d6000fd5b505050506040513d601f19601f820116820180604052508101906108529190613cd5565b905090565b6000600460009054906101000a900473ffffffffffffffffffffffffffffffffffffffff1673ffffffffffffffffffffffffffffffffffffffff1663d974b4e26040518060400160405280600981526020017f414156455f504f4f4c00000000000000000000000000000000000000000000008152506040518263ffffffff1660e01b81526004016108e991906144dd565b60206040518083038186803b15801561090157600080fd5b505afa158015610915573d6000803e3d6000fd5b505050506040513d601f19601f820116820180604052508101906109399190613cd5565b905090565b600061097a61094b612022565b61096c610956610db1565b61095e611bb0565b6126a790919063ffffffff16565b6126a790919063ffffffff16565b905090565b6000600260009054906101000a900473ffffffffffffffffffffffffffffffffffffffff1673ffffffffffffffffffffffffffffffffffffffff166391d14854600154336040518363ffffffff1660e01b8152600401808381526020018273ffffffffffffffffffffffffffffffffffffffff1681526020019250505060206040518083038186803b158015610a1457600080fd5b505afa158015610a28573d6000803e3d6000fd5b505050506040513d6020811015610a3e57600080fd5b810190808051906020019092919050505080610b245750600260009054906101000a900473ffffffffffffffffffffffffffffffffffffffff1673ffffffffffffffffffffffffffffffffffffffff166391d14854600054336040518363ffffffff1660e01b8152600401808381526020018273ffffffffffffffffffffffffffffffffffffffff1681526020019250505060206040518083038186803b158015610ae857600080fd5b505afa158015610afc573d6000803e3d6000fd5b505050506040513d6020811015610b1257600080fd5b81019080805190602001909291905050505b905090565b60606040518060400160405280601381526020017f4c656e64696e6753747261746567795553445400000000000000000000000000815250905090565b6000600460009054906101000a900473ffffffffffffffffffffffffffffffffffffffff1673ffffffffffffffffffffffffffffffffffffffff1663d974b4e26040518060400160405280600881526020017f434f4d504f554e440000000000000000000000000000000000000000000000008152506040518263ffffffff1660e01b8152600401610bf891906144dd565b60206040518083038186803b158015610c1057600080fd5b505afa158015610c24573d6000803e3d6000fd5b505050506040513d601f19601f82011682018060405250810190610c489190613cd5565b905090565b600760009054906101000a900473ffffffffffffffffffffffffffffffffffffffff1681565b600460009054906101000a900473ffffffffffffffffffffffffffffffffffffffff1673ffffffffffffffffffffffffffffffffffffffff1663d974b4e2600d6040518263ffffffff1660e01b8152600401610ccf91906144ff565b60206040518083038186803b158015610ce757600080fd5b505afa158015610cfb573d6000803e3d6000fd5b505050506040513d601f19601f82011682018060405250810190610d1f9190613cd5565b73ffffffffffffffffffffffffffffffffffffffff1663e9af0292306040518263ffffffff1660e01b8152600401610d5791906142f7565b600060405180830381600087803b158015610d7157600080fd5b505af1158015610d85573d6000803e3d6000fd5b50505050565b600260009054906101000a900473ffffffffffffffffffffffffffffffffffffffff1681565b600080610dbc611883565b90508073ffffffffffffffffffffffffffffffffffffffff166370a08231306040518263ffffffff1660e01b8152600401610df791906142f7565b60206040518083038186803b158015610e0f57600080fd5b505afa158015610e23573d6000803e3d6000fd5b505050506040513d601f19601f82011682018060405250810190610e479190613e85565b91505090565b600460009054906101000a900473ffffffffffffffffffffffffffffffffffffffff1681565b6000610f27662386f26fc10000610f19600354610e8e610770565b73ffffffffffffffffffffffffffffffffffffffff1663ae9d70b06040518163ffffffff1660e01b815260040160206040518083038186803b158015610ed357600080fd5b505afa158015610ee7573d6000803e3d6000fd5b505050506040513d601f19601f82011682018060405250810190610f0b9190613e85565b61272f90919063ffffffff16565b6127b590919063ffffffff16565b905090565b600660009054906101000a900473ffffffffffffffffffffffffffffffffffffffff1673ffffffffffffffffffffffffffffffffffffffff163373ffffffffffffffffffffffffffffffffffffffff1614610fbc576040517f08c379a0000000000000000000000000000000000000000000000000000000008152600401610fb390614561565b60405180910390fd5b600073ffffffffffffffffffffffffffffffffffffffff16600a60009054906101000a900473ffffffffffffffffffffffffffffffffffffffff1673ffffffffffffffffffffffffffffffffffffffff16141561104e576040517f08c379a0000000000000000000000000000000000000000000000000000000008152600401611045906145c1565b60405180910390fd5b6000611058612022565b905061107661107160018461283e90919063ffffffff16565b6128c1565b600061109282611084612022565b61283e90919063ffffffff16565b9050611103600a60009054906101000a900473ffffffffffffffffffffffffffffffffffffffff1682600760009054906101000a900473ffffffffffffffffffffffffffffffffffffffff1673ffffffffffffffffffffffffffffffffffffffff166129389092919063ffffffff16565b505050565b611110611ebe565b611182576040517f08c379a00000000000000000000000000000000000000000000000000000000081526004018080602001828103825260158152602001807f43616c6c6572206973206e6f7420612061646d696e000000000000000000000081525060200191505060405180910390fd5b61118e848484846129da565b6111b983838673ffffffffffffffffffffffffffffffffffffffff166129389092919063ffffffff16565b50505050565b6111c761097f565b8061121f5750600660009054906101000a900473ffffffffffffffffffffffffffffffffffffffff1673ffffffffffffffffffffffffffffffffffffffff163373ffffffffffffffffffffffffffffffffffffffff16145b61125e576040517f08c379a000000000000000000000000000000000000000000000000000000000815260040161125590614581565b60405180910390fd5b600e60009054906101000a900460ff16156115d9576001600281111561128057fe5b600c60149054906101000a900460ff16600281111561129b57fe5b14156115d8576112a9610c73565b6000600b60009054906101000a900473ffffffffffffffffffffffffffffffffffffffff1673ffffffffffffffffffffffffffffffffffffffff166370a08231306040518263ffffffff1660e01b815260040161130691906142f7565b60206040518083038186803b15801561131e57600080fd5b505afa158015611332573d6000803e3d6000fd5b505050506040513d601f19601f820116820180604052508101906113569190613e85565b905066b1a2bc2ec500008111156115d6576113d6600c60009054906101000a900473ffffffffffffffffffffffffffffffffffffffff1682600b60009054906101000a900473ffffffffffffffffffffffffffffffffffffffff1673ffffffffffffffffffffffffffffffffffffffff16612b9e9092919063ffffffff16565b6060600267ffffffffffffffff811180156113f057600080fd5b5060405190808252806020026020018201604052801561141f5781602001602082028036833780820191505090505b509050600b60009054906101000a900473ffffffffffffffffffffffffffffffffffffffff168160008151811061145257fe5b602002602001019073ffffffffffffffffffffffffffffffffffffffff16908173ffffffffffffffffffffffffffffffffffffffff1681525050600760009054906101000a900473ffffffffffffffffffffffffffffffffffffffff16816001815181106114bc57fe5b602002602001019073ffffffffffffffffffffffffffffffffffffffff16908173ffffffffffffffffffffffffffffffffffffffff1681525050600c60009054906101000a900473ffffffffffffffffffffffffffffffffffffffff1673ffffffffffffffffffffffffffffffffffffffff166338ed173983600084600a60009054906101000a900473ffffffffffffffffffffffffffffffffffffffff16426040518663ffffffff1660e01b815260040161157c95949392919061465c565b600060405180830381600087803b15801561159657600080fd5b505af11580156115aa573d6000803e3d6000fd5b505050506040513d6000823e3d601f19601f820116820180604052508101906115d39190613dc8565b50505b505b5b565b6000600460009054906101000a900473ffffffffffffffffffffffffffffffffffffffff1673ffffffffffffffffffffffffffffffffffffffff1663d974b4e26040518060400160405280600481526020017f55534454000000000000000000000000000000000000000000000000000000008152506040518263ffffffff1660e01b815260040161166d91906144dd565b60206040518083038186803b15801561168557600080fd5b505afa158015611699573d6000803e3d6000fd5b505050506040513d601f19601f820116820180604052508101906116bd9190613cd5565b905090565b600e60009054906101000a900460ff1681565b6000600860009054906101000a900473ffffffffffffffffffffffffffffffffffffffff1673ffffffffffffffffffffffffffffffffffffffff166370a08231306040518263ffffffff1660e01b815260040161173291906142f7565b60206040518083038186803b15801561174a57600080fd5b505afa15801561175e573d6000803e3d6000fd5b505050506040513d601f19601f820116820180604052508101906117829190613e85565b905090565b6000600460009054906101000a900473ffffffffffffffffffffffffffffffffffffffff1673ffffffffffffffffffffffffffffffffffffffff1663d974b4e26040518060400160405280601481526020017f554e49535741505f56325f524f555445525f30320000000000000000000000008152506040518263ffffffff1660e01b815260040161181991906144dd565b60206040518083038186803b15801561183157600080fd5b505afa158015611845573d6000803e3d6000fd5b505050506040513d601f19601f820116820180604052508101906118699190613cd5565b905090565b600061187861093e565b905090565b60005481565b60008061188e6115db565b90506000600460009054906101000a900473ffffffffffffffffffffffffffffffffffffffff1673ffffffffffffffffffffffffffffffffffffffff1663d974b4e26040518060400160405280601b81526020017f414156455f50524f544f434f4c5f444154415f50524f564944455200000000008152506040518263ffffffff1660e01b815260040161192291906144dd565b60206040518083038186803b15801561193a57600080fd5b505afa15801561194e573d6000803e3d6000fd5b505050506040513d601f19601f820116820180604052508101906119729190613cd5565b73ffffffffffffffffffffffffffffffffffffffff1663d2493b6c836040518263ffffffff1660e01b81526004016119aa91906142f7565b60606040518083038186803b1580156119c257600080fd5b505afa1580156119d6573d6000803e3d6000fd5b505050506040513d601f19601f820116820180604052508101906119fa9190613cfe565b50509050809250505090565b600660009054906101000a900473ffffffffffffffffffffffffffffffffffffffff1673ffffffffffffffffffffffffffffffffffffffff163373ffffffffffffffffffffffffffffffffffffffff1614611a96576040517f08c379a0000000000000000000000000000000000000000000000000000000008152600401611a8d90614561565b60405180910390fd5b600073ffffffffffffffffffffffffffffffffffffffff16600a60009054906101000a900473ffffffffffffffffffffffffffffffffffffffff1673ffffffffffffffffffffffffffffffffffffffff161415611b28576040517f08c379a0000000000000000000000000000000000000000000000000000000008152600401611b1f906145c1565b60405180910390fd5b611b306111bf565b611b38612d63565b611bae600a60009054906101000a900473ffffffffffffffffffffffffffffffffffffffff16611b66612022565b600760009054906101000a900473ffffffffffffffffffffffffffffffffffffffff1673ffffffffffffffffffffffffffffffffffffffff166129389092919063ffffffff16565b565b600080611bbb6116d5565b90506000811115611c9557611c92670de0b6b3a7640000611c84600860009054906101000a900473ffffffffffffffffffffffffffffffffffffffff1673ffffffffffffffffffffffffffffffffffffffff1663182df0f56040518163ffffffff1660e01b815260040160206040518083038186803b158015611c3d57600080fd5b505afa158015611c51573d6000803e3d6000fd5b505050506040513d601f19601f82011682018060405250810190611c759190613e85565b8461272f90919063ffffffff16565b6127b590919063ffffffff16565b90505b8091505090565b60058181548110611cac57600080fd5b90600052602060002090600702016000915090508060000160009054906101000a900473ffffffffffffffffffffffffffffffffffffffff16908060010160009054906101000a900473ffffffffffffffffffffffffffffffffffffffff16908060020160009054906101000a900473ffffffffffffffffffffffffffffffffffffffff1690806003015490806004018054600181600116156101000203166002900480601f016020809104026020016040519081016040528092919081815260200182805460018160011615610100020316600290048015611dd05780601f10611da557610100808354040283529160200191611dd0565b820191906000526020600020905b815481529060010190602001808311611db357829003601f168201915b5050505050908060050154908060060154905087565b600080611df1610857565b905060008173ffffffffffffffffffffffffffffffffffffffff166335ea6a75856040518263ffffffff1660e01b8152600401611e2e91906142f7565b6101806040518083038186803b158015611e4757600080fd5b505afa158015611e5b573d6000803e3d6000fd5b505050506040513d601f19601f82011682018060405250810190611e7f9190613e32565b606001516fffffffffffffffffffffffffffffffff169050611eb56a084595161401484a000000826127b590919063ffffffff16565b92505050919050565b6000600260009054906101000a900473ffffffffffffffffffffffffffffffffffffffff1673ffffffffffffffffffffffffffffffffffffffff166391d14854600054336040518363ffffffff1660e01b8152600401808381526020018273ffffffffffffffffffffffffffffffffffffffff1681526020019250505060206040518083038186803b158015611f5357600080fd5b505afa158015611f67573d6000803e3d6000fd5b505050506040513d6020811015611f7d57600080fd5b8101908080519060200190929190505050905090565b600960009054906101000a900473ffffffffffffffffffffffffffffffffffffffff1681565b600860009054906101000a900473ffffffffffffffffffffffffffffffffffffffff1681565b60035481565b600c60009054906101000a900473ffffffffffffffffffffffffffffffffffffffff1681565b600061201d6120186115db565b611de6565b905090565b6000600760009054906101000a900473ffffffffffffffffffffffffffffffffffffffff1673ffffffffffffffffffffffffffffffffffffffff166370a08231306040518263ffffffff1660e01b815260040161207f91906142f7565b60206040518083038186803b15801561209757600080fd5b505afa1580156120ab573d6000803e3d6000fd5b505050506040513d601f19601f820116820180604052508101906120cf9190613e85565b905090565b6120dc611ebe565b61214e576040517f08c379a00000000000000000000000000000000000000000000000000000000081526004018080602001828103825260158152602001807f43616c6c6572206973206e6f7420612061646d696e000000000000000000000081525060200191505060405180910390fd5b80600260006101000a81548173ffffffffffffffffffffffffffffffffffffffff021916908373ffffffffffffffffffffffffffffffffffffffff1602179055507f80a3f12473a80f6a171c7096f3b364f834ec24355548ba7fc5168da0bb213fad3382604051808373ffffffffffffffffffffffffffffffffffffffff1681526020018273ffffffffffffffffffffffffffffffffffffffff1681526020019250505060405180910390a150565b61220561097f565b8061225d5750600660009054906101000a900473ffffffffffffffffffffffffffffffffffffffff1673ffffffffffffffffffffffffffffffffffffffff163373ffffffffffffffffffffffffffffffffffffffff16145b61229c576040517f08c379a000000000000000000000000000000000000000000000000000000000815260040161229390614581565b60405180910390fd5b6122ac6122a7612dc8565b612e28565b565b6000600260009054906101000a900473ffffffffffffffffffffffffffffffffffffffff1673ffffffffffffffffffffffffffffffffffffffff166391d14854600154336040518363ffffffff1660e01b8152600401808381526020018273ffffffffffffffffffffffffffffffffffffffff1681526020019250505060206040518083038186803b15801561234357600080fd5b505afa158015612357573d6000803e3d6000fd5b505050506040513d602081101561236d57600080fd5b8101908080519060200190929190505050905090565b61238b611ebe565b6123fd576040517f08c379a00000000000000000000000000000000000000000000000000000000081526004018080602001828103825260158152602001807f43616c6c6572206973206e6f7420612061646d696e000000000000000000000081525060200191505060405180910390fd5b806003819055507fe51a6f28db5b9eb5b66fa6ecf23160c0ed35608b9ad7ef59b3b639e921166969338260405161243592919061433b565b60405180910390a150565b612448611ebe565b6124ba576040517f08c379a00000000000000000000000000000000000000000000000000000000081526004018080602001828103825260158152602001807f43616c6c6572206973206e6f7420612061646d696e000000000000000000000081525060200191505060405180910390fd5b80600e60006101000a81548160ff0219169083151502179055507f0ca4861b06432a0e64b19e86e515bfa178bef90f5c88390a0cef7ed8ccd104e33382604051612505929190614312565b60405180910390a150565b61251861097f565b806125705750600660009054906101000a900473ffffffffffffffffffffffffffffffffffffffff1673ffffffffffffffffffffffffffffffffffffffff163373ffffffffffffffffffffffffffffffffffffffff16145b6125af576040517f08c379a00000000000000000000000000000000000000000000000000000000081526004016125a690614581565b60405180910390fd5b60006125b9612dc8565b9050600c60149054906101000a900460ff1660028111156125d657fe5b8160028111156125e257fe5b1415612623576040517f08c379a000000000000000000000000000000000000000000000000000000000815260040161261a90614521565b60405180910390fd5b61262c81612e28565b50565b60015481565b600b60009054906101000a900473ffffffffffffffffffffffffffffffffffffffff1681565b600660009054906101000a900473ffffffffffffffffffffffffffffffffffffffff1681565b600a60009054906101000a900473ffffffffffffffffffffffffffffffffffffffff1681565b600080828401905083811015612725576040517f08c379a000000000000000000000000000000000000000000000000000000000815260040180806020018281038252601b8152602001807f536166654d6174683a206164646974696f6e206f766572666c6f77000000000081525060200191505060405180910390fd5b8091505092915050565b60008083141561274257600090506127af565b600082840290508284828161275357fe5b04146127aa576040517f08c379a0000000000000000000000000000000000000000000000000000000008152600401808060200182810382526021815260200180614a286021913960400191505060405180910390fd5b809150505b92915050565b600080821161282c576040517f08c379a000000000000000000000000000000000000000000000000000000000815260040180806020018281038252601a8152602001807f536166654d6174683a206469766973696f6e206279207a65726f00000000000081525060200191505060405180910390fd5b81838161283557fe5b04905092915050565b6000828211156128b6576040517f08c379a000000000000000000000000000000000000000000000000000000000815260040180806020018281038252601e8152602001807f536166654d6174683a207375627472616374696f6e206f766572666c6f77000081525060200191505060405180910390fd5b818303905092915050565b600160028111156128ce57fe5b600c60149054906101000a900460ff1660028111156128e957fe5b14156128fd576128f881612f0f565b612935565b60028081111561290957fe5b600c60149054906101000a900460ff16600281111561292457fe5b14156129345761293381612fa2565b5b5b50565b6129d58363a9059cbb60e01b8484604051602401808373ffffffffffffffffffffffffffffffffffffffff16815260200182815260200192505050604051602081830303815290604052907bffffffffffffffffffffffffffffffffffffffffffffffffffffffff19166020820180517bffffffffffffffffffffffffffffffffffffffffffffffffffffffff83818316178352505050506130c3565b505050565b6129e26138ad565b6040518060e001604052808673ffffffffffffffffffffffffffffffffffffffff1681526020013373ffffffffffffffffffffffffffffffffffffffff1681526020018573ffffffffffffffffffffffffffffffffffffffff168152602001848152602001838152602001428152602001438152509050600581908060018154018082558091505060019003906000526020600020906007020160009091909190915060008201518160000160006101000a81548173ffffffffffffffffffffffffffffffffffffffff021916908373ffffffffffffffffffffffffffffffffffffffff16021790555060208201518160010160006101000a81548173ffffffffffffffffffffffffffffffffffffffff021916908373ffffffffffffffffffffffffffffffffffffffff16021790555060408201518160020160006101000a81548173ffffffffffffffffffffffffffffffffffffffff021916908373ffffffffffffffffffffffffffffffffffffffff160217905550606082015181600301556080820151816004019080519060200190612b8092919061392c565b5060a0820151816005015560c0820151816006015550505050505050565b6000811480612c6c575060008373ffffffffffffffffffffffffffffffffffffffff1663dd62ed3e30856040518363ffffffff1660e01b8152600401808373ffffffffffffffffffffffffffffffffffffffff1681526020018273ffffffffffffffffffffffffffffffffffffffff1681526020019250505060206040518083038186803b158015612c2f57600080fd5b505afa158015612c43573d6000803e3d6000fd5b505050506040513d6020811015612c5957600080fd5b8101908080519060200190929190505050145b612cc1576040517f08c379a0000000000000000000000000000000000000000000000000000000008152600401808060200182810382526036815260200180614a736036913960400191505060405180910390fd5b612d5e8363095ea7b360e01b8484604051602401808373ffffffffffffffffffffffffffffffffffffffff16815260200182815260200192505050604051602081830303815290604052907bffffffffffffffffffffffffffffffffffffffffffffffffffffffff19166020820180517bffffffffffffffffffffffffffffffffffffffffffffffffffffffff83818316178352505050506130c3565b505050565b6000612d6d611bb0565b90506001811115612d9557612d94612d8f60018361283e90919063ffffffff16565b612f0f565b5b612d9d610db1565b90506001811115612dc557612dc4612dbf60018361283e90919063ffffffff16565b612fa2565b5b50565b600080600090506000612dd9610e73565b90506000612e08600760009054906101000a900473ffffffffffffffffffffffffffffffffffffffff16611de6565b9050808210612e1a5760019250612e1f565b600292505b82935050505090565b612e30612d63565b6000612e4d6001612e3f612022565b61283e90919063ffffffff16565b905060008111612e92576040517f08c379a0000000000000000000000000000000000000000000000000000000008152600401612e89906145a1565b60405180910390fd5b60016002811115612e9f57fe5b826002811115612eab57fe5b1415612ebf57612eba816131b2565b612ee8565b600280811115612ecb57fe5b826002811115612ed757fe5b1415612ee757612ee681613383565b5b5b81600c60146101000a81548160ff02191690836002811115612f0657fe5b02179055505050565b6000612f196116d5565b90506000612f25611bb0565b905082811015612f6a576040517f08c379a0000000000000000000000000000000000000000000000000000000008152600401612f61906145e1565b60405180910390fd5b6000612f9182612f83868661272f90919063ffffffff16565b6127b590919063ffffffff16565b9050612f9c8161351b565b50505050565b80612fab610db1565b1015612fec576040517f08c379a0000000000000000000000000000000000000000000000000000000008152600401612fe390614621565b60405180910390fd5b600960009054906101000a900473ffffffffffffffffffffffffffffffffffffffff1673ffffffffffffffffffffffffffffffffffffffff166369328dec600760009054906101000a900473ffffffffffffffffffffffffffffffffffffffff1683306040518463ffffffff1660e01b815260040161306d939291906143da565b602060405180830381600087803b15801561308757600080fd5b505af115801561309b573d6000803e3d6000fd5b505050506040513d601f19601f820116820180604052508101906130bf9190613e85565b5050565b6060613125826040518060400160405280602081526020017f5361666545524332303a206c6f772d6c6576656c2063616c6c206661696c65648152508573ffffffffffffffffffffffffffffffffffffffff1661360d9092919063ffffffff16565b90506000815111156131ad5780806020019051602081101561314657600080fd5b81019080805190602001909291905050506131ac576040517f08c379a000000000000000000000000000000000000000000000000000000000815260040180806020018281038252602a815260200180614a49602a913960400191505060405180910390fd5b5b505050565b613222600860009054906101000a900473ffffffffffffffffffffffffffffffffffffffff166000600760009054906101000a900473ffffffffffffffffffffffffffffffffffffffff1673ffffffffffffffffffffffffffffffffffffffff16612b9e9092919063ffffffff16565b613291600860009054906101000a900473ffffffffffffffffffffffffffffffffffffffff1682600760009054906101000a900473ffffffffffffffffffffffffffffffffffffffff1673ffffffffffffffffffffffffffffffffffffffff16612b9e9092919063ffffffff16565b6000600860009054906101000a900473ffffffffffffffffffffffffffffffffffffffff1673ffffffffffffffffffffffffffffffffffffffff1663a0712d68836040518263ffffffff1660e01b81526004016132ee9190614641565b602060405180830381600087803b15801561330857600080fd5b505af115801561331c573d6000803e3d6000fd5b505050506040513d601f19601f820116820180604052508101906133409190613e85565b14613380576040517f08c379a000000000000000000000000000000000000000000000000000000000815260040161337790614601565b60405180910390fd5b50565b6133f3600960009054906101000a900473ffffffffffffffffffffffffffffffffffffffff166000600760009054906101000a900473ffffffffffffffffffffffffffffffffffffffff1673ffffffffffffffffffffffffffffffffffffffff16612b9e9092919063ffffffff16565b613462600960009054906101000a900473ffffffffffffffffffffffffffffffffffffffff1682600760009054906101000a900473ffffffffffffffffffffffffffffffffffffffff1673ffffffffffffffffffffffffffffffffffffffff16612b9e9092919063ffffffff16565b600960009054906101000a900473ffffffffffffffffffffffffffffffffffffffff1673ffffffffffffffffffffffffffffffffffffffff1663e8eda9df600760009054906101000a900473ffffffffffffffffffffffffffffffffffffffff16833060006040518563ffffffff1660e01b81526004016134e69493929190614411565b600060405180830381600087803b15801561350057600080fd5b505af1158015613514573d6000803e3d6000fd5b5050505050565b6000600860009054906101000a900473ffffffffffffffffffffffffffffffffffffffff1673ffffffffffffffffffffffffffffffffffffffff1663db006a75836040518263ffffffff1660e01b81526004016135789190614641565b602060405180830381600087803b15801561359257600080fd5b505af11580156135a6573d6000803e3d6000fd5b505050506040513d601f19601f820116820180604052508101906135ca9190613e85565b1461360a576040517f08c379a000000000000000000000000000000000000000000000000000000000815260040161360190614541565b60405180910390fd5b50565b606061361c8484600085613625565b90509392505050565b606082471015613680576040517f08c379a0000000000000000000000000000000000000000000000000000000008152600401808060200182810382526026815260200180614a026026913960400191505060405180910390fd5b613689856137ce565b6136fb576040517f08c379a000000000000000000000000000000000000000000000000000000000815260040180806020018281038252601d8152602001807f416464726573733a2063616c6c20746f206e6f6e2d636f6e747261637400000081525060200191505060405180910390fd5b600060608673ffffffffffffffffffffffffffffffffffffffff1685876040518082805190602001908083835b6020831061374b5780518252602082019150602081019050602083039250613728565b6001836020036101000a03801982511681845116808217855250505050505090500191505060006040518083038185875af1925050503d80600081146137ad576040519150601f19603f3d011682016040523d82523d6000602084013e6137b2565b606091505b50915091506137c28282866137e1565b92505050949350505050565b600080823b905060008111915050919050565b606083156137f1578290506138a6565b6000835111156138045782518084602001fd5b816040517f08c379a00000000000000000000000000000000000000000000000000000000081526004018080602001828103825283818151815260200191508051906020019080838360005b8381101561386b578082015181840152602081019050613850565b50505050905090810190601f1680156138985780820380516001836020036101000a031916815260200191505b509250505060405180910390fd5b9392505050565b6040518060e00160405280600073ffffffffffffffffffffffffffffffffffffffff168152602001600073ffffffffffffffffffffffffffffffffffffffff168152602001600073ffffffffffffffffffffffffffffffffffffffff168152602001600081526020016060815260200160008152602001600081525090565b828054600181600116156101000203166002900490600052602060002090601f01602090048101928261396257600085556139a9565b82601f1061397b57805160ff19168380011785556139a9565b828001600101855582156139a9579182015b828111156139a857825182559160200191906001019061398d565b5b5090506139b691906139ba565b5090565b5b808211156139d35760008160009055506001016139bb565b5090565b6000813590506139e681614977565b92915050565b6000815190506139fb81614977565b92915050565b600082601f830112613a1257600080fd5b8151613a25613a20826146e7565b6146b6565b91508181835260208401935060208101905083856020840282011115613a4a57600080fd5b60005b83811015613a7a5781613a608882613c6d565b845260208401935060208301925050600181019050613a4d565b5050505092915050565b600081359050613a938161498e565b92915050565b600082601f830112613aaa57600080fd5b8135613abd613ab882614713565b6146b6565b91508082526020830160208301858383011115613ad957600080fd5b613ae483828461490e565b50505092915050565b600060208284031215613aff57600080fd5b613b0960206146b6565b90506000613b1984828501613c6d565b60008301525092915050565b60006101808284031215613b3857600080fd5b613b436101806146b6565b90506000613b5384828501613aed565b6000830152506020613b6784828501613c43565b6020830152506040613b7b84828501613c43565b6040830152506060613b8f84828501613c43565b6060830152506080613ba384828501613c43565b60808301525060a0613bb784828501613c43565b60a08301525060c0613bcb84828501613c82565b60c08301525060e0613bdf848285016139ec565b60e083015250610100613bf4848285016139ec565b61010083015250610120613c0a848285016139ec565b61012083015250610140613c20848285016139ec565b61014083015250610160613c3684828501613c97565b6101608301525092915050565b600081519050613c52816149a5565b92915050565b600081359050613c67816149bc565b92915050565b600081519050613c7c816149bc565b92915050565b600081519050613c91816149d3565b92915050565b600081519050613ca6816149ea565b92915050565b600060208284031215613cbe57600080fd5b6000613ccc848285016139d7565b91505092915050565b600060208284031215613ce757600080fd5b6000613cf5848285016139ec565b91505092915050565b600080600060608486031215613d1357600080fd5b6000613d21868287016139ec565b9350506020613d32868287016139ec565b9250506040613d43868287016139ec565b9150509250925092565b60008060008060808587031215613d6357600080fd5b6000613d71878288016139d7565b9450506020613d82878288016139d7565b9350506040613d9387828801613c58565b925050606085013567ffffffffffffffff811115613db057600080fd5b613dbc87828801613a99565b91505092959194509250565b600060208284031215613dda57600080fd5b600082015167ffffffffffffffff811115613df457600080fd5b613e0084828501613a01565b91505092915050565b600060208284031215613e1b57600080fd5b6000613e2984828501613a84565b91505092915050565b60006101808284031215613e4557600080fd5b6000613e5384828501613b25565b91505092915050565b600060208284031215613e6e57600080fd5b6000613e7c84828501613c58565b91505092915050565b600060208284031215613e9757600080fd5b6000613ea584828501613c6d565b91505092915050565b6000613eba8383613ed5565b60208301905092915050565b613ecf8161485a565b82525050565b613ede816147ad565b82525050565b613eed816147ad565b82525050565b6000613efe82614768565b613f08818561478b565b9350613f1383614743565b8060005b83811015613f44578151613f2b8882613eae565b9750613f368361477e565b925050600181019050613f17565b5085935050505092915050565b613f5a816147bf565b82525050565b613f69816147cb565b82525050565b613f788161486c565b82525050565b613f8781614890565b82525050565b613f96816148b4565b82525050565b613fa5816148c6565b82525050565b613fb4816148d8565b82525050565b6000613fc582614773565b613fcf818561479c565b9350613fdf81856020860161491d565b613fe881614952565b840191505092915050565b60008154600181166000811461401057600181146140365761407a565b607f6002830416614021818761479c565b955060ff19831686526020860193505061407a565b60028204614044818761479c565b955061404f85614753565b60005b8281101561407157815481890152600182019150602081019050614052565b80880195505050505b505092915050565b600061408f60148361479c565b91507f50726f7669646572206973207468652073616d650000000000000000000000006000830152602082019050919050565b60006140cf60198361479c565b91507f434f4d504f554e443a207769746864726177206661696c6564000000000000006000830152602082019050919050565b600061410f600b8361479c565b91507f21636f6e74726f6c6c65720000000000000000000000000000000000000000006000830152602082019050919050565b600061414f60328361479c565b91507f43616c6c6572206973206e6f74206f6e65206f662061646d696e2c6f7065726160008301527f746f7220616e6420636f6e74726f6c6c657200000000000000000000000000006020830152604082019050919050565b60006141b560128361479c565b91507f4e6f7420656e6f7567682062616c616e636500000000000000000000000000006000830152602082019050919050565b60006141f560068361479c565b91507f217661756c7400000000000000000000000000000000000000000000000000006000830152602082019050919050565b6000614235601b8361479c565b91507f496e73756666696369656e7420636f6d706f756e642066756e647300000000006000830152602082019050919050565b600061427560168361479c565b91507f434f4d504f554e443a737570706c79206661696c6564000000000000000000006000830152602082019050919050565b60006142b560198361479c565b91507f496e73756666696369656e742061746f6b656e2066756e6473000000000000006000830152602082019050919050565b6142f181614832565b82525050565b600060208201905061430c6000830184613ee4565b92915050565b60006040820190506143276000830185613ec6565b6143346020830184613f51565b9392505050565b60006040820190506143506000830185613ec6565b61435d60208301846142e8565b9392505050565b600060e082019050614379600083018a613ee4565b6143866020830189613ee4565b6143936040830188613ee4565b6143a060608301876142e8565b81810360808301526143b28186613fba565b90506143c160a08301856142e8565b6143ce60c08301846142e8565b98975050505050505050565b60006060820190506143ef6000830186613ee4565b6143fc60208301856142e8565b6144096040830184613ee4565b949350505050565b60006080820190506144266000830187613ee4565b61443360208301866142e8565b6144406040830185613ee4565b61444d6060830184613f9c565b95945050505050565b600060208201905061446b6000830184613f51565b92915050565b60006020820190506144866000830184613f60565b92915050565b60006020820190506144a16000830184613f6f565b92915050565b60006020820190506144bc6000830184613f7e565b92915050565b60006020820190506144d76000830184613f8d565b92915050565b600060208201905081810360008301526144f78184613fba565b905092915050565b600060208201905081810360008301526145198184613ff3565b905092915050565b6000602082019050818103600083015261453a81614082565b9050919050565b6000602082019050818103600083015261455a816140c2565b9050919050565b6000602082019050818103600083015261457a81614102565b9050919050565b6000602082019050818103600083015261459a81614142565b9050919050565b600060208201905081810360008301526145ba816141a8565b9050919050565b600060208201905081810360008301526145da816141e8565b9050919050565b600060208201905081810360008301526145fa81614228565b9050919050565b6000602082019050818103600083015261461a81614268565b9050919050565b6000602082019050818103600083015261463a816142a8565b9050919050565b600060208201905061465660008301846142e8565b92915050565b600060a08201905061467160008301886142e8565b61467e6020830187613fab565b81810360408301526146908186613ef3565b905061469f6060830185613ee4565b6146ac60808301846142e8565b9695505050505050565b6000604051905081810181811067ffffffffffffffff821117156146dd576146dc614950565b5b8060405250919050565b600067ffffffffffffffff82111561470257614701614950565b5b602082029050602081019050919050565b600067ffffffffffffffff82111561472e5761472d614950565b5b601f19601f8301169050602081019050919050565b6000819050602082019050919050565b60008190508160005260206000209050919050565b600081519050919050565b600081519050919050565b6000602082019050919050565b600082825260208201905092915050565b600082825260208201905092915050565b60006147b882614812565b9050919050565b60008115159050919050565b6000819050919050565b60008190506147e382614963565b919050565b60006fffffffffffffffffffffffffffffffff82169050919050565b600061ffff82169050919050565b600073ffffffffffffffffffffffffffffffffffffffff82169050919050565b6000819050919050565b600064ffffffffff82169050919050565b600060ff82169050919050565b6000614865826148ea565b9050919050565b60006148778261487e565b9050919050565b600061488982614812565b9050919050565b600061489b826148a2565b9050919050565b60006148ad82614812565b9050919050565b60006148bf826147d5565b9050919050565b60006148d182614804565b9050919050565b60006148e382614832565b9050919050565b60006148f5826148fc565b9050919050565b600061490782614812565b9050919050565b82818337600083830152505050565b60005b8381101561493b578082015181840152602081019050614920565b8381111561494a576000848401525b50505050565bfe5b6000601f19601f8301169050919050565b6003811061497457614973614950565b5b50565b614980816147ad565b811461498b57600080fd5b50565b614997816147bf565b81146149a257600080fd5b50565b6149ae816147e8565b81146149b957600080fd5b50565b6149c581614832565b81146149d057600080fd5b50565b6149dc8161483c565b81146149e757600080fd5b50565b6149f38161484d565b81146149fe57600080fd5b5056fe416464726573733a20696e73756666696369656e742062616c616e636520666f722063616c6c536166654d6174683a206d756c7469706c69636174696f6e206f766572666c6f775361666545524332303a204552433230206f7065726174696f6e20646964206e6f7420737563636565645361666545524332303a20617070726f76652066726f6d206e6f6e2d7a65726f20746f206e6f6e2d7a65726f20616c6c6f77616e6365a2646970667358221220487d439dbfb683e5f8ad34260dd028d6f27f1b6b8fd4567d39f358a39ccc03c664736f6c63430007040033",
  "immutableReferences": {},
  "source": "// SPDX-License-Identifier: MIT\n\npragma solidity >=0.6.0 <0.8.0;\npragma experimental ABIEncoderV2;\n\nimport '@openzeppelin/contracts/token/ERC20/IERC20.sol';\nimport '@openzeppelin/contracts/math/SafeMath.sol';\nimport '@openzeppelin/contracts/utils/Address.sol';\nimport '@openzeppelin/contracts/token/ERC20/SafeERC20.sol';\nimport '@uniswap/v2-periphery/contracts/interfaces/IUniswapV2Router02.sol';\n\nimport '../interfaces/IAaveLendingPool.sol';\nimport '../interfaces/ICompoundToken.sol';\nimport '../interfaces/AToken.sol';\nimport '../interfaces/ICompoundComptroller.sol';\n\nimport '../mics/AddressProvider.sol';\nimport '../contexts/DataCal.sol';\nimport '../contexts/FaultTolerance.sol';\nimport '../contexts/AuthControl.sol';\nimport '../contexts/Events.sol';\n\nimport '../libraries/types/DataTypes.sol';\nimport '../libraries/types/AddressTypes.sol';\n\ncontract LendingStrategyUSDT is Events, AuthControl, DataCal, FaultTolerance {\n\tusing SafeERC20 for IERC20;\n\tusing Address for address;\n\tusing SafeMath for uint256;\n\n\taddress public controller;\n\taddress public want;\n\taddress public compoundToken;\n\taddress public aavePool;\n\taddress public vault;\n\taddress public compound;\n\taddress public uniswapV2Router02;\n\n\t// DataTypes.Lender Lender;\n\n\tDataTypes.Lender public provider = DataTypes.Lender.NONE;\n\n\tstring private COMPOUND_COMPTROLLER = AddressTypes.COMPOUND_COMPTROLLER;\n\n\tbool public autoHarvest = true;\n\n\tconstructor(\n\t\taddress _vault,\n\t\taddress _addressProvider,\n\t\taddress _accessProvider,\n\t\taddress _controller\n\t) AuthControl(_accessProvider) DataCal(_addressProvider) {\n\t\tvault = _vault;\n\t\tcontroller = _controller;\n\t\twant = getUSDT();\n\t\tcompoundToken = getCompoundUSDT();\n\t\taavePool = getAavePool();\n\t\tcompound = getCompound();\n\t\tuniswapV2Router02 = getUniswapV2Router02();\n\t}\n\n\tmodifier onlyAuth() {\n\t\trequire(ifAdminOrOperator() || msg.sender == controller, 'Caller is not one of admin,operator and controller');\n\t\t_;\n\t}\n\n\tfunction setAutoHarvest(bool _value) public onlyAdmin {\n\t\tautoHarvest = _value;\n\t\temit SetAutoHarvest(msg.sender, _value);\n\t}\n\n\tfunction getName() external pure returns (string memory) {\n\t\treturn 'LendingStrategyUSDT';\n\t}\n\n\t// Controller | Vault role - withdraw should always return to Vault\n\tfunction withdraw(uint256 _amount) public {\n\t\trequire(msg.sender == controller, '!controller');\n\t\trequire(vault != address(0), '!vault');\n\t\tuint256 _before = balance();\n\t\twithdrawSome(_amount.sub(1)); // Rounding problem\n\t\tuint256 _diff = balance().sub(_before);\n\t\tIERC20(want).safeTransfer(vault, _diff);\n\t}\n\n\tfunction withdrawAll() public {\n\t\trequire(msg.sender == controller, '!controller');\n\t\trequire(vault != address(0), '!vault');\n\t\tharvest();\n\t\t_withdrawAll();\n\t\tIERC20(want).safeTransfer(vault, balance());\n\t}\n\n\tfunction balanceOf() public view returns (uint256) {\n\t\treturn calcPoolUnderlying();\n\t}\n\n\tfunction balance() public view returns (uint256) {\n\t\treturn IERC20(want).balanceOf(address(this));\n\t}\n\n\tfunction claimCompound() public {\n\t\tICompoundComptroller(addressProvider.getAddressMap(COMPOUND_COMPTROLLER)).claimComp(address(this));\n\t}\n\n\tfunction harvest() public onlyAuth {\n\t\tif (autoHarvest) {\n\t\t\tif (provider == DataTypes.Lender.COMPOUND) {\n\t\t\t\t// if provider is compound, clamin\n\t\t\t\tclaimCompound();\n\t\t\t\tuint256 _compoundBalance = IERC20(compound).balanceOf(address(this));\n\t\t\t\tif (_compoundBalance > 5e16) {\n\t\t\t\t\tIERC20(compound).safeApprove(uniswapV2Router02, _compoundBalance);\n\t\t\t\t\taddress[] memory path = new address[](2);\n\t\t\t\t\tpath[0] = compound;\n\t\t\t\t\tpath[1] = want;\n\t\t\t\t\t// swapExactTokensForTokens\n\t\t\t\t\tIUniswapV2Router02(uniswapV2Router02).swapExactTokensForTokens(\n\t\t\t\t\t\t_compoundBalance,\n\t\t\t\t\t\t0,\n\t\t\t\t\t\tpath,\n\t\t\t\t\t\tvault,\n\t\t\t\t\t\tblock.timestamp\n\t\t\t\t\t);\n\t\t\t\t}\n\t\t\t}\n\t\t}\n\t}\n\n\tfunction deposit() public onlyAuth {\n\t\t_deposit(recommend());\n\t}\n\n\tfunction reBalance() public onlyAuth {\n\t\tDataTypes.Lender newProvider = recommend();\n\t\trequire(newProvider != provider, 'Provider is the same');\n\t\t_deposit(newProvider);\n\t}\n\n\tfunction _deposit(DataTypes.Lender newProvider) internal {\n\t\t_withdrawAll();\n\t\tuint256 _balance = balance().sub(1); // Rounding problem\n\t\trequire(_balance > 0, 'Not enough balance');\n\t\tif (newProvider == DataTypes.Lender.COMPOUND) {\n\t\t\t_supplyCompound(_balance);\n\t\t} else if (newProvider == DataTypes.Lender.AAVE) {\n\t\t\t_supplyAave(_balance);\n\t\t}\n\t\tprovider = newProvider;\n\t}\n\n\tfunction recommend() internal view returns (DataTypes.Lender) {\n\t\tDataTypes.Lender newProvider = DataTypes.Lender.NONE;\n\t\tuint256 compoundApr = getCompoundUSDTAPY();\n\t\tuint256 aaveApr = getAaveAPY(want);\n\t\tif (compoundApr >= aaveApr) {\n\t\t\tnewProvider = DataTypes.Lender.COMPOUND;\n\t\t} else {\n\t\t\tnewProvider = DataTypes.Lender.AAVE;\n\t\t}\n\t\treturn newProvider;\n\t}\n\n\tfunction _withdrawAll() internal {\n\t\tuint256 _amount = balanceCompoundUnderlying();\n\t\tif (_amount > 1) {\n\t\t\t_withdrawSomeCompound(_amount.sub(1));\n\t\t}\n\t\t_amount = balanceAaveUnderlying();\n\t\tif (_amount > 1) {\n\t\t\t_withdrawAToken(_amount.sub(1));\n\t\t}\n\t}\n\n\tfunction withdrawSome(uint256 _amount) internal {\n\t\tif (provider == DataTypes.Lender.COMPOUND) {\n\t\t\t_withdrawSomeCompound(_amount);\n\t\t} else if (provider == DataTypes.Lender.AAVE) {\n\t\t\t_withdrawAToken(_amount);\n\t\t}\n\t}\n\n\tfunction _supplyCompound(uint256 _amount) internal {\n\t\tIERC20(want).safeApprove(compoundToken, 0);\n\t\tIERC20(want).safeApprove(compoundToken, _amount);\n\t\trequire(ICompoundToken(compoundToken).mint(_amount) == 0, 'COMPOUND:supply failed');\n\t}\n\n\tfunction _supplyAave(uint256 _amount) internal {\n\t\tIERC20(want).safeApprove(aavePool, 0);\n\t\tIERC20(want).safeApprove(aavePool, _amount);\n\t\tIAaveLendingPool(aavePool).deposit(want, _amount, address(this), 0);\n\t}\n\n\tfunction _withdrawSomeCompound(uint256 _amount) internal {\n\t\tuint256 b = balanceCompound();\n\t\tuint256 bT = balanceCompoundUnderlying();\n\t\trequire(bT >= _amount, 'Insufficient compound funds');\n\t\tuint256 _compoundAmount = (b.mul(_amount)).div(bT);\n\t\t_withdrawCompound(_compoundAmount);\n\t}\n\n\tfunction _withdrawCompound(uint256 amount) internal {\n\t\trequire(ICompoundToken(compoundToken).redeem(amount) == 0, 'COMPOUND: withdraw failed');\n\t}\n\n\tfunction _withdrawAToken(uint256 _amount) internal {\n\t\trequire(balanceAaveUnderlying() >= _amount, 'Insufficient atoken funds');\n\t\tIAaveLendingPool(aavePool).withdraw(want, _amount, address(this));\n\t}\n\n\tfunction balanceCompound() public view returns (uint256) {\n\t\treturn IERC20(compoundToken).balanceOf(address(this));\n\t}\n\n\tfunction balanceCompoundUnderlying() public view returns (uint256) {\n\t\t// Mantisa 1e18 to decimals\n\t\tuint256 _balanceCompound = balanceCompound();\n\t\tif (_balanceCompound > 0) {\n\t\t\t_balanceCompound = _balanceCompound.mul(ICompoundToken(compoundToken).exchangeRateStored()).div(1e18);\n\t\t}\n\t\treturn _balanceCompound;\n\t}\n\n\tfunction balanceAaveUnderlying() public view returns (uint256) {\n\t\taddress aToken = getAaveUSDT();\n\t\treturn IERC20(aToken).balanceOf(address(this));\n\t}\n\n\tfunction calcPoolUnderlying() public view returns (uint256) {\n\t\treturn balanceCompoundUnderlying().add(balanceAaveUnderlying()).add(balance());\n\t}\n}\n",
  "sourcePath": "/Users/liyuanye/Desktop/CHFRY-LYY/chfry/contracts/strategies/LendingStrategyUSDT.sol",
  "compiler": {
    "name": "solc",
    "version": "0.7.4+commit.3f05b770.Emscripten.clang"
  },
  "schemaVersion": "3.3.4",
  "updatedAt": "2021-03-30T05:48:50.385Z",
  "networkType": "ethereum",
  "devdoc": {
    "kind": "dev",
    "methods": {},
    "version": 1
  },
  "userdoc": {
    "kind": "user",
    "methods": {},
    "version": 1
  }
}